{
    "contractName": "ERC721Token",
    "abi": [
        {
            "inputs": [
                {
                    "internalType": "string",
                    "name": "name",
                    "type": "string"
                },
                {
                    "internalType": "string",
                    "name": "symbol",
                    "type": "string"
                }
            ],
            "stateMutability": "nonpayable",
            "type": "constructor"
        },
        {
            "anonymous": false,
            "inputs": [
                {
                    "indexed": true,
                    "internalType": "address",
                    "name": "owner",
                    "type": "address"
                },
                {
                    "indexed": true,
                    "internalType": "address",
                    "name": "approved",
                    "type": "address"
                },
                {
                    "indexed": true,
                    "internalType": "uint256",
                    "name": "tokenId",
                    "type": "uint256"
                }
            ],
            "name": "Approval",
            "type": "event"
        },
        {
            "anonymous": false,
            "inputs": [
                {
                    "indexed": true,
                    "internalType": "address",
                    "name": "owner",
                    "type": "address"
                },
                {
                    "indexed": true,
                    "internalType": "address",
                    "name": "operator",
                    "type": "address"
                },
                {
                    "indexed": false,
                    "internalType": "bool",
                    "name": "approved",
                    "type": "bool"
                }
            ],
            "name": "ApprovalForAll",
            "type": "event"
        },
        {
            "anonymous": false,
            "inputs": [
                {
                    "indexed": true,
                    "internalType": "address",
                    "name": "account",
                    "type": "address"
                }
            ],
            "name": "MinterAdded",
            "type": "event"
        },
        {
            "anonymous": false,
            "inputs": [
                {
                    "indexed": true,
                    "internalType": "address",
                    "name": "account",
                    "type": "address"
                }
            ],
            "name": "MinterRemoved",
            "type": "event"
        },
        {
            "anonymous": false,
            "inputs": [
                {
                    "indexed": true,
                    "internalType": "address",
                    "name": "previousOwner",
                    "type": "address"
                },
                {
                    "indexed": true,
                    "internalType": "address",
                    "name": "newOwner",
                    "type": "address"
                }
            ],
            "name": "OwnershipTransferred",
            "type": "event"
        },
        {
            "anonymous": false,
            "inputs": [
                {
                    "indexed": false,
                    "internalType": "address",
                    "name": "account",
                    "type": "address"
                }
            ],
            "name": "Paused",
            "type": "event"
        },
        {
            "anonymous": false,
            "inputs": [
                {
                    "indexed": true,
                    "internalType": "bytes32",
                    "name": "role",
                    "type": "bytes32"
                },
                {
                    "indexed": true,
                    "internalType": "bytes32",
                    "name": "previousAdminRole",
                    "type": "bytes32"
                },
                {
                    "indexed": true,
                    "internalType": "bytes32",
                    "name": "newAdminRole",
                    "type": "bytes32"
                }
            ],
            "name": "RoleAdminChanged",
            "type": "event"
        },
        {
            "anonymous": false,
            "inputs": [
                {
                    "indexed": true,
                    "internalType": "bytes32",
                    "name": "role",
                    "type": "bytes32"
                },
                {
                    "indexed": true,
                    "internalType": "address",
                    "name": "account",
                    "type": "address"
                },
                {
                    "indexed": true,
                    "internalType": "address",
                    "name": "sender",
                    "type": "address"
                }
            ],
            "name": "RoleGranted",
            "type": "event"
        },
        {
            "anonymous": false,
            "inputs": [
                {
                    "indexed": true,
                    "internalType": "bytes32",
                    "name": "role",
                    "type": "bytes32"
                },
                {
                    "indexed": true,
                    "internalType": "address",
                    "name": "account",
                    "type": "address"
                },
                {
                    "indexed": true,
                    "internalType": "address",
                    "name": "sender",
                    "type": "address"
                }
            ],
            "name": "RoleRevoked",
            "type": "event"
        },
        {
            "anonymous": false,
            "inputs": [
                {
                    "indexed": true,
                    "internalType": "address",
                    "name": "from",
                    "type": "address"
                },
                {
                    "indexed": true,
                    "internalType": "address",
                    "name": "to",
                    "type": "address"
                },
                {
                    "indexed": true,
                    "internalType": "uint256",
                    "name": "tokenId",
                    "type": "uint256"
                }
            ],
            "name": "Transfer",
            "type": "event"
        },
        {
            "anonymous": false,
            "inputs": [
                {
                    "indexed": false,
                    "internalType": "address",
                    "name": "account",
                    "type": "address"
                }
            ],
            "name": "Unpaused",
            "type": "event"
        },
        {
            "inputs": [],
            "name": "DEFAULT_ADMIN_ROLE",
            "outputs": [
                {
                    "internalType": "bytes32",
                    "name": "",
                    "type": "bytes32"
                }
            ],
            "stateMutability": "view",
            "type": "function"
        },
        {
            "inputs": [
                {
                    "internalType": "address",
                    "name": "account",
                    "type": "address"
                }
            ],
            "name": "addMinter",
            "outputs": [],
            "stateMutability": "nonpayable",
            "type": "function"
        },
        {
            "inputs": [
                {
                    "internalType": "address",
                    "name": "to",
                    "type": "address"
                },
                {
                    "internalType": "uint256",
                    "name": "tokenId",
                    "type": "uint256"
                }
            ],
            "name": "approve",
            "outputs": [],
            "stateMutability": "nonpayable",
            "type": "function"
        },
        {
            "inputs": [
                {
                    "internalType": "address",
                    "name": "owner",
                    "type": "address"
                }
            ],
            "name": "balanceOf",
            "outputs": [
                {
                    "internalType": "uint256",
                    "name": "",
                    "type": "uint256"
                }
            ],
            "stateMutability": "view",
            "type": "function"
        },
        {
            "inputs": [
                {
                    "internalType": "uint256",
                    "name": "tokenId",
                    "type": "uint256"
                }
            ],
            "name": "burn",
            "outputs": [],
            "stateMutability": "nonpayable",
            "type": "function"
        },
        {
            "inputs": [
                {
                    "internalType": "bytes32",
                    "name": "interfaceHash",
                    "type": "bytes32"
                },
                {
                    "internalType": "address",
                    "name": "",
                    "type": "address"
                }
            ],
            "name": "canImplementInterfaceForAddress",
            "outputs": [
                {
                    "internalType": "bytes32",
                    "name": "",
                    "type": "bytes32"
                }
            ],
            "stateMutability": "view",
            "type": "function"
        },
        {
            "inputs": [
                {
                    "internalType": "uint256",
                    "name": "tokenId",
                    "type": "uint256"
                }
            ],
            "name": "getApproved",
            "outputs": [
                {
                    "internalType": "address",
                    "name": "",
                    "type": "address"
                }
            ],
            "stateMutability": "view",
            "type": "function"
        },
        {
            "inputs": [
                {
                    "internalType": "bytes32",
                    "name": "role",
                    "type": "bytes32"
                }
            ],
            "name": "getRoleAdmin",
            "outputs": [
                {
                    "internalType": "bytes32",
                    "name": "",
                    "type": "bytes32"
                }
            ],
            "stateMutability": "view",
            "type": "function"
        },
        {
            "inputs": [
                {
                    "internalType": "bytes32",
                    "name": "role",
                    "type": "bytes32"
                },
                {
                    "internalType": "uint256",
                    "name": "index",
                    "type": "uint256"
                }
            ],
            "name": "getRoleMember",
            "outputs": [
                {
                    "internalType": "address",
                    "name": "",
                    "type": "address"
                }
            ],
            "stateMutability": "view",
            "type": "function"
        },
        {
            "inputs": [
                {
                    "internalType": "bytes32",
                    "name": "role",
                    "type": "bytes32"
                }
            ],
            "name": "getRoleMemberCount",
            "outputs": [
                {
                    "internalType": "uint256",
                    "name": "",
                    "type": "uint256"
                }
            ],
            "stateMutability": "view",
            "type": "function"
        },
        {
            "inputs": [
                {
                    "internalType": "bytes32",
                    "name": "role",
                    "type": "bytes32"
                },
                {
                    "internalType": "address",
                    "name": "account",
                    "type": "address"
                }
            ],
            "name": "grantRole",
            "outputs": [],
            "stateMutability": "nonpayable",
            "type": "function"
        },
        {
            "inputs": [
                {
                    "internalType": "bytes32",
                    "name": "role",
                    "type": "bytes32"
                },
                {
                    "internalType": "address",
                    "name": "account",
                    "type": "address"
                }
            ],
            "name": "hasRole",
            "outputs": [
                {
                    "internalType": "bool",
                    "name": "",
                    "type": "bool"
                }
            ],
            "stateMutability": "view",
            "type": "function"
        },
        {
            "inputs": [
                {
                    "internalType": "address",
                    "name": "owner",
                    "type": "address"
                },
                {
                    "internalType": "address",
                    "name": "operator",
                    "type": "address"
                }
            ],
            "name": "isApprovedForAll",
            "outputs": [
                {
                    "internalType": "bool",
                    "name": "",
                    "type": "bool"
                }
            ],
            "stateMutability": "view",
            "type": "function"
        },
        {
            "inputs": [
                {
                    "internalType": "address",
                    "name": "account",
                    "type": "address"
                }
            ],
            "name": "isMinter",
            "outputs": [
                {
                    "internalType": "bool",
                    "name": "",
                    "type": "bool"
                }
            ],
            "stateMutability": "view",
            "type": "function"
        },
        {
            "inputs": [
                {
                    "internalType": "address",
                    "name": "to",
                    "type": "address"
                },
                {
                    "internalType": "uint256",
                    "name": "tokenId",
                    "type": "uint256"
                }
            ],
            "name": "mint",
            "outputs": [
                {
                    "internalType": "bool",
                    "name": "",
                    "type": "bool"
                }
            ],
            "stateMutability": "nonpayable",
            "type": "function"
        },
        {
            "inputs": [],
            "name": "name",
            "outputs": [
                {
                    "internalType": "string",
                    "name": "",
                    "type": "string"
                }
            ],
            "stateMutability": "view",
            "type": "function"
        },
        {
            "inputs": [],
            "name": "owner",
            "outputs": [
                {
                    "internalType": "address",
                    "name": "",
                    "type": "address"
                }
            ],
            "stateMutability": "view",
            "type": "function"
        },
        {
            "inputs": [
                {
                    "internalType": "uint256",
                    "name": "tokenId",
                    "type": "uint256"
                }
            ],
            "name": "ownerOf",
            "outputs": [
                {
                    "internalType": "address",
                    "name": "",
                    "type": "address"
                }
            ],
            "stateMutability": "view",
            "type": "function"
        },
        {
            "inputs": [],
            "name": "paused",
            "outputs": [
                {
                    "internalType": "bool",
                    "name": "",
                    "type": "bool"
                }
            ],
            "stateMutability": "view",
            "type": "function"
        },
        {
            "inputs": [
                {
                    "internalType": "address",
                    "name": "account",
                    "type": "address"
                }
            ],
            "name": "removeMinter",
            "outputs": [],
            "stateMutability": "nonpayable",
            "type": "function"
        },
        {
            "inputs": [],
            "name": "renounceMinter",
            "outputs": [],
            "stateMutability": "nonpayable",
            "type": "function"
        },
        {
            "inputs": [],
            "name": "renounceOwnership",
            "outputs": [],
            "stateMutability": "nonpayable",
            "type": "function"
        },
        {
            "inputs": [
                {
                    "internalType": "bytes32",
                    "name": "role",
                    "type": "bytes32"
                },
                {
                    "internalType": "address",
                    "name": "account",
                    "type": "address"
                }
            ],
            "name": "renounceRole",
            "outputs": [],
            "stateMutability": "nonpayable",
            "type": "function"
        },
        {
            "inputs": [
                {
                    "internalType": "bytes32",
                    "name": "role",
                    "type": "bytes32"
                },
                {
                    "internalType": "address",
                    "name": "account",
                    "type": "address"
                }
            ],
            "name": "revokeRole",
            "outputs": [],
            "stateMutability": "nonpayable",
            "type": "function"
        },
        {
            "inputs": [
                {
                    "internalType": "address",
                    "name": "from",
                    "type": "address"
                },
                {
                    "internalType": "address",
                    "name": "to",
                    "type": "address"
                },
                {
                    "internalType": "uint256",
                    "name": "tokenId",
                    "type": "uint256"
                }
            ],
            "name": "safeTransferFrom",
            "outputs": [],
            "stateMutability": "nonpayable",
            "type": "function"
        },
        {
            "inputs": [
                {
                    "internalType": "address",
                    "name": "from",
                    "type": "address"
                },
                {
                    "internalType": "address",
                    "name": "to",
                    "type": "address"
                },
                {
                    "internalType": "uint256",
                    "name": "tokenId",
                    "type": "uint256"
                },
                {
                    "internalType": "bytes",
                    "name": "_data",
                    "type": "bytes"
                }
            ],
            "name": "safeTransferFrom",
            "outputs": [],
            "stateMutability": "nonpayable",
            "type": "function"
        },
        {
            "inputs": [
                {
                    "internalType": "address",
                    "name": "operator",
                    "type": "address"
                },
                {
                    "internalType": "bool",
                    "name": "approved",
                    "type": "bool"
                }
            ],
            "name": "setApprovalForAll",
            "outputs": [],
            "stateMutability": "nonpayable",
            "type": "function"
        },
        {
            "inputs": [
                {
                    "internalType": "bytes4",
                    "name": "interfaceId",
                    "type": "bytes4"
                }
            ],
            "name": "supportsInterface",
            "outputs": [
                {
                    "internalType": "bool",
                    "name": "",
                    "type": "bool"
                }
            ],
            "stateMutability": "view",
            "type": "function"
        },
        {
            "inputs": [],
            "name": "symbol",
            "outputs": [
                {
                    "internalType": "string",
                    "name": "",
                    "type": "string"
                }
            ],
            "stateMutability": "view",
            "type": "function"
        },
        {
            "inputs": [
                {
                    "internalType": "uint256",
                    "name": "index",
                    "type": "uint256"
                }
            ],
            "name": "tokenByIndex",
            "outputs": [
                {
                    "internalType": "uint256",
                    "name": "",
                    "type": "uint256"
                }
            ],
            "stateMutability": "view",
            "type": "function"
        },
        {
            "inputs": [
                {
                    "internalType": "address",
                    "name": "owner",
                    "type": "address"
                },
                {
                    "internalType": "uint256",
                    "name": "index",
                    "type": "uint256"
                }
            ],
            "name": "tokenOfOwnerByIndex",
            "outputs": [
                {
                    "internalType": "uint256",
                    "name": "",
                    "type": "uint256"
                }
            ],
            "stateMutability": "view",
            "type": "function"
        },
        {
            "inputs": [
                {
                    "internalType": "uint256",
                    "name": "tokenId",
                    "type": "uint256"
                }
            ],
            "name": "tokenURI",
            "outputs": [
                {
                    "internalType": "string",
                    "name": "",
                    "type": "string"
                }
            ],
            "stateMutability": "view",
            "type": "function"
        },
        {
            "inputs": [],
            "name": "totalSupply",
            "outputs": [
                {
                    "internalType": "uint256",
                    "name": "",
                    "type": "uint256"
                }
            ],
            "stateMutability": "view",
            "type": "function"
        },
        {
            "inputs": [
                {
                    "internalType": "address",
                    "name": "from",
                    "type": "address"
                },
                {
                    "internalType": "address",
                    "name": "to",
                    "type": "address"
                },
                {
                    "internalType": "uint256",
                    "name": "tokenId",
                    "type": "uint256"
                }
            ],
            "name": "transferFrom",
            "outputs": [],
            "stateMutability": "nonpayable",
            "type": "function"
        },
        {
            "inputs": [
                {
                    "internalType": "address",
                    "name": "newOwner",
                    "type": "address"
                }
            ],
            "name": "transferOwnership",
            "outputs": [],
            "stateMutability": "nonpayable",
            "type": "function"
        }
    ],
    "bytecode": "60806040523480156200001157600080fd5b5060405162002cc838038062002cc88339810160408190526200003491620003f7565b81816200004133620000c5565b815162000056906001906020850190620002c0565b5080516200006c906002906020840190620002c0565b5050600b805460ff1916905550620000843362000115565b620000bd6040518060400160405280600b81526020016a22a9219b9918aa37b5b2b760a91b8152506200016760201b62000ec61760201c565b505062000505565b600080546001600160a01b038381166001600160a01b0319831681178455604051919092169283917f8be0079c531659141344cd1fd0a4f28419497f9722a3daafe3b4186f6b6457e09190a35050565b6200013081600c620001b760201b62000f141790919060201c565b6040516001600160a01b038216907f6ae172837ea30b801fbfcdd4108aa1d5bf8ff775444fd70256b44e6bf3dfc3f690600090a250565b6001600d60008360405160200162000180919062000461565b60408051808303601f19018152918152815160209283012083529082019290925201600020805460ff191691151591909117905550565b620001c382826200023b565b15620002165760405162461bcd60e51b815260206004820152601f60248201527f526f6c65733a206163636f756e7420616c72656164792068617320726f6c650060448201526064015b60405180910390fd5b6001600160a01b0316600090815260209190915260409020805460ff19166001179055565b60006001600160a01b038216620002a05760405162461bcd60e51b815260206004820152602260248201527f526f6c65733a206163636f756e7420697320746865207a65726f206164647265604482015261737360f01b60648201526084016200020d565b506001600160a01b03166000908152602091909152604090205460ff1690565b828054620002ce90620004b2565b90600052602060002090601f016020900481019282620002f257600085556200033d565b82601f106200030d57805160ff19168380011785556200033d565b828001600101855582156200033d579182015b828111156200033d57825182559160200191906001019062000320565b506200034b9291506200034f565b5090565b5b808211156200034b576000815560010162000350565b600082601f8301126200037857600080fd5b81516001600160401b0380821115620003955762000395620004ef565b604051601f8301601f19908116603f01168101908282118183101715620003c057620003c0620004ef565b81604052838152866020858801011115620003da57600080fd5b620003ed8460208301602089016200047f565b9695505050505050565b600080604083850312156200040b57600080fd5b82516001600160401b03808211156200042357600080fd5b620004318683870162000366565b935060208501519150808211156200044857600080fd5b50620004578582860162000366565b9150509250929050565b60008251620004758184602087016200047f565b9190910192915050565b60005b838110156200049c57818101518382015260200162000482565b83811115620004ac576000848401525b50505050565b600181811c90821680620004c757607f821691505b60208210811415620004e957634e487b7160e01b600052602260045260246000fd5b50919050565b634e487b7160e01b600052604160045260246000fd5b6127b380620005156000396000f3fe608060405234801561001057600080fd5b50600436106102115760003560e01c80636352211e11610125578063a217fddf116100ad578063c87b56dd1161007c578063c87b56dd1461045a578063ca15c8731461046d578063d547741f14610480578063e985e9c514610493578063f2fde38b146104cf57600080fd5b8063a217fddf14610419578063a22cb46514610421578063aa271e1a14610434578063b88d4fde1461044757600080fd5b80639010d07c116100f45780639010d07c146103d057806391d14854146103e357806395d89b41146103f6578063983b2d56146103fe578063986502751461041157600080fd5b80636352211e1461039157806370a08231146103a4578063715018a6146103b75780638da5cb5b146103bf57600080fd5b80632f2ff15d116101a857806340c10f191161017757806340c10f191461033a57806342842e0e1461034d57806342966c68146103605780634f6ccce7146103735780635c975abb1461038657600080fd5b80632f2ff15d146102ee5780632f745c59146103015780633092afd51461031457806336568abe1461032757600080fd5b806318160ddd116101e457806318160ddd1461029357806323b872dd146102a5578063248a9ca3146102b8578063249cb3fa146102db57600080fd5b806301ffc9a71461021657806306fdde031461023e578063081812fc14610253578063095ea7b31461027e575b600080fd5b6102296102243660046123d1565b6104e2565b60405190151581526020015b60405180910390f35b6102466104f3565b6040516102359190612534565b610266610261366004612373565b610585565b6040516001600160a01b039091168152602001610235565b61029161028c366004612349565b61061f565b005b6009545b604051908152602001610235565b6102916102b33660046121f5565b610735565b6102976102c6366004612373565b6000908152600e602052604090206001015490565b6102976102e936600461238c565b610767565b6102916102fc36600461238c565b6107c7565b61029761030f366004612349565b6107e9565b6102916103223660046121a7565b61087f565b61029161033536600461238c565b61089d565b610229610348366004612349565b6108bf565b61029161035b3660046121f5565b6108e6565b61029161036e366004612373565b610901565b610297610381366004612373565b610978565b600b5460ff16610229565b61026661039f366004612373565b610a0b565b6102976103b23660046121a7565b610a82565b610291610b09565b6000546001600160a01b0316610266565b6102666103de3660046123af565b610b6f565b6102296103f136600461238c565b610b8e565b610246610bb9565b61029161040c3660046121a7565b610bc8565b610291610be3565b610297600081565b61029161042f36600461230d565b610bec565b6102296104423660046121a7565b610cb1565b610291610455366004612231565b610cbe565b610246610468366004612373565b610cf6565b61029761047b366004612373565b610ddd565b61029161048e36600461238c565b610df4565b6102296104a13660046121c2565b6001600160a01b03918216600090815260066020908152604080832093909416825291909152205460ff1690565b6102916104dd3660046121a7565b610dfe565b60006104ed82610f90565b92915050565b6060600180546105029061268f565b80601f016020809104026020016040519081016040528092919081815260200182805461052e9061268f565b801561057b5780601f106105505761010080835404028352916020019161057b565b820191906000526020600020905b81548152906001019060200180831161055e57829003601f168201915b5050505050905090565b6000818152600360205260408120546001600160a01b03166106035760405162461bcd60e51b815260206004820152602c60248201527f4552433732313a20617070726f76656420717565727920666f72206e6f6e657860448201526b34b9ba32b73a103a37b5b2b760a11b60648201526084015b60405180910390fd5b506000908152600560205260409020546001600160a01b031690565b600061062a82610a0b565b9050806001600160a01b0316836001600160a01b031614156106985760405162461bcd60e51b815260206004820152602160248201527f4552433732313a20617070726f76616c20746f2063757272656e74206f776e656044820152603960f91b60648201526084016105fa565b336001600160a01b03821614806106b457506106b481336104a1565b6107265760405162461bcd60e51b815260206004820152603860248201527f4552433732313a20617070726f76652063616c6c6572206973206e6f74206f7760448201527f6e6572206e6f7220617070726f76656420666f7220616c6c000000000000000060648201526084016105fa565b6107308383610fb5565b505050565b610740335b82611023565b61075c5760405162461bcd60e51b81526004016105fa90612599565b61073083838361111a565b6000828152600d602052604081205460ff16156107be5760405173455243313832305f4143434550545f4d4147494360601b60208201526034016040516020818303038152906040528051906020012090506104ed565b50600092915050565b6107d182826112c5565b6000828152600f6020526040902061073090826112eb565b60006107f483610a82565b82106108565760405162461bcd60e51b815260206004820152602b60248201527f455243373231456e756d657261626c653a206f776e657220696e646578206f7560448201526a74206f6620626f756e647360a81b60648201526084016105fa565b506001600160a01b03919091166000908152600760209081526040808320938352929052205490565b61088833610cb1565b61089157600080fd5b61089a81611300565b50565b6108a78282611342565b6000828152600f6020526040902061073090826113c0565b60006108ca33610cb1565b6108d357600080fd5b6108dd83836113d5565b50600192915050565b61073083838360405180602001604052806000815250610cbe565b61090a3361073a565b61096f5760405162461bcd60e51b815260206004820152603060248201527f4552433732314275726e61626c653a2063616c6c6572206973206e6f74206f7760448201526f1b995c881b9bdc88185c1c1c9bdd995960821b60648201526084016105fa565b61089a81611523565b600061098360095490565b82106109e65760405162461bcd60e51b815260206004820152602c60248201527f455243373231456e756d657261626c653a20676c6f62616c20696e646578206f60448201526b7574206f6620626f756e647360a01b60648201526084016105fa565b600982815481106109f9576109f961273b565b90600052602060002001549050919050565b6000818152600360205260408120546001600160a01b0316806104ed5760405162461bcd60e51b815260206004820152602960248201527f4552433732313a206f776e657220717565727920666f72206e6f6e657869737460448201526832b73a103a37b5b2b760b91b60648201526084016105fa565b60006001600160a01b038216610aed5760405162461bcd60e51b815260206004820152602a60248201527f4552433732313a2062616c616e636520717565727920666f7220746865207a65604482015269726f206164647265737360b01b60648201526084016105fa565b506001600160a01b031660009081526004602052604090205490565b6000546001600160a01b03163314610b635760405162461bcd60e51b815260206004820181905260248201527f4f776e61626c653a2063616c6c6572206973206e6f7420746865206f776e657260448201526064016105fa565b610b6d60006115ca565b565b6000828152600f60205260408120610b87908361161a565b9392505050565b6000918252600e602090815260408084206001600160a01b0393909316845291905290205460ff1690565b6060600280546105029061268f565b610bd133610cb1565b610bda57600080fd5b61089a81611626565b610b6d33611300565b6001600160a01b038216331415610c455760405162461bcd60e51b815260206004820152601960248201527f4552433732313a20617070726f766520746f2063616c6c65720000000000000060448201526064016105fa565b3360008181526006602090815260408083206001600160a01b03871680855290835292819020805460ff191686151590811790915590519081529192917f17307eab39ab6107e8899845ad3d59bd9653f200f220920489ca2b5937696c31910160405180910390a35050565b60006104ed600c83611668565b610cc83383611023565b610ce45760405162461bcd60e51b81526004016105fa90612599565b610cf0848484846116eb565b50505050565b6000818152600360205260409020546060906001600160a01b0316610d755760405162461bcd60e51b815260206004820152602f60248201527f4552433732314d657461646174613a2055524920717565727920666f72206e6f60448201526e3732bc34b9ba32b73a103a37b5b2b760891b60648201526084016105fa565b6000610d8c60408051602081019091526000815290565b90506000815111610dac5760405180602001604052806000815250610b87565b80610db68461171e565b604051602001610dc7929190612453565b6040516020818303038152906040529392505050565b6000818152600f602052604081206104ed9061181c565b6108a78282611826565b6000546001600160a01b03163314610e585760405162461bcd60e51b815260206004820181905260248201527f4f776e61626c653a2063616c6c6572206973206e6f7420746865206f776e657260448201526064016105fa565b6001600160a01b038116610ebd5760405162461bcd60e51b815260206004820152602660248201527f4f776e61626c653a206e6577206f776e657220697320746865207a65726f206160448201526564647265737360d01b60648201526084016105fa565b61089a816115ca565b6001600d600083604051602001610edd9190612437565b60408051808303601f19018152918152815160209283012083529082019290925201600020805460ff191691151591909117905550565b610f1e8282611668565b15610f6b5760405162461bcd60e51b815260206004820152601f60248201527f526f6c65733a206163636f756e7420616c72656164792068617320726f6c650060448201526064016105fa565b6001600160a01b0316600090815260209190915260409020805460ff19166001179055565b60006001600160e01b03198216635a05180f60e01b14806104ed57506104ed8261184c565b600081815260056020526040902080546001600160a01b0319166001600160a01b0384169081179091558190610fea82610a0b565b6001600160a01b03167f8c5be1e5ebec7d5bd14f71427d1e84f3dd0314c0f7b2291e5b200ac8c7c3b92560405160405180910390a45050565b6000818152600360205260408120546001600160a01b031661109c5760405162461bcd60e51b815260206004820152602c60248201527f4552433732313a206f70657261746f7220717565727920666f72206e6f6e657860448201526b34b9ba32b73a103a37b5b2b760a11b60648201526084016105fa565b60006110a783610a0b565b9050806001600160a01b0316846001600160a01b031614806110e25750836001600160a01b03166110d784610585565b6001600160a01b0316145b8061111257506001600160a01b0380821660009081526006602090815260408083209388168352929052205460ff165b949350505050565b826001600160a01b031661112d82610a0b565b6001600160a01b0316146111955760405162461bcd60e51b815260206004820152602960248201527f4552433732313a207472616e73666572206f6620746f6b656e2074686174206960448201526839903737ba1037bbb760b91b60648201526084016105fa565b6001600160a01b0382166111f75760405162461bcd60e51b8152602060048201526024808201527f4552433732313a207472616e7366657220746f20746865207a65726f206164646044820152637265737360e01b60648201526084016105fa565b611202838383611871565b61120d600082610fb5565b6001600160a01b0383166000908152600460205260408120805460019290611236908490612635565b90915550506001600160a01b03821660009081526004602052604081208054600192906112649084906125ea565b909155505060008181526003602052604080822080546001600160a01b0319166001600160a01b0386811691821790925591518493918716917fddf252ad1be2c89b69c2b068fc378daa952ba7f163c4a11628f55a4df523b3ef91a4505050565b6000828152600e60205260409020600101546112e1813361187c565b61073083836118e0565b6000610b87836001600160a01b038416611966565b61130b600c826119ad565b6040516001600160a01b038216907fe94479a9f7e1952cc78f2d6baab678adc1b772d936c6583def489e524cb6669290600090a250565b6001600160a01b03811633146113b25760405162461bcd60e51b815260206004820152602f60248201527f416363657373436f6e74726f6c3a2063616e206f6e6c792072656e6f756e636560448201526e103937b632b9903337b91039b2b63360891b60648201526084016105fa565b6113bc8282611a2f565b5050565b6000610b87836001600160a01b038416611a96565b6001600160a01b03821661142b5760405162461bcd60e51b815260206004820181905260248201527f4552433732313a206d696e7420746f20746865207a65726f206164647265737360448201526064016105fa565b6000818152600360205260409020546001600160a01b0316156114905760405162461bcd60e51b815260206004820152601c60248201527f4552433732313a20746f6b656e20616c7265616479206d696e7465640000000060448201526064016105fa565b61149c60008383611871565b6001600160a01b03821660009081526004602052604081208054600192906114c59084906125ea565b909155505060008181526003602052604080822080546001600160a01b0319166001600160a01b03861690811790915590518392907fddf252ad1be2c89b69c2b068fc378daa952ba7f163c4a11628f55a4df523b3ef908290a45050565b600061152e82610a0b565b905061153c81600084611871565b611547600083610fb5565b6001600160a01b0381166000908152600460205260408120805460019290611570908490612635565b909155505060008281526003602052604080822080546001600160a01b0319169055518391906001600160a01b038416907fddf252ad1be2c89b69c2b068fc378daa952ba7f163c4a11628f55a4df523b3ef908390a45050565b600080546001600160a01b038381166001600160a01b0319831681178455604051919092169283917f8be0079c531659141344cd1fd0a4f28419497f9722a3daafe3b4186f6b6457e09190a35050565b6000610b878383611b89565b611631600c82610f14565b6040516001600160a01b038216907f6ae172837ea30b801fbfcdd4108aa1d5bf8ff775444fd70256b44e6bf3dfc3f690600090a250565b60006001600160a01b0382166116cb5760405162461bcd60e51b815260206004820152602260248201527f526f6c65733a206163636f756e7420697320746865207a65726f206164647265604482015261737360f01b60648201526084016105fa565b506001600160a01b03166000908152602091909152604090205460ff1690565b6116f684848461111a565b61170284848484611bb3565b610cf05760405162461bcd60e51b81526004016105fa90612547565b6060816117425750506040805180820190915260018152600360fc1b602082015290565b8160005b811561176c5780611756816126ca565b91506117659050600a83612602565b9150611746565b60008167ffffffffffffffff81111561178757611787612751565b6040519080825280601f01601f1916602001820160405280156117b1576020820181803683370190505b5090505b8415611112576117c6600183612635565b91506117d3600a866126e5565b6117de9060306125ea565b60f81b8183815181106117f3576117f361273b565b60200101906001600160f81b031916908160001a905350611815600a86612602565b94506117b5565b60006104ed825490565b6000828152600e6020526040902060010154611842813361187c565b6107308383611a2f565b60006001600160e01b03198216637965db0b60e01b14806104ed57506104ed82611cc0565b610730838383611ce5565b6118868282610b8e565b6113bc5761189e816001600160a01b03166014611d57565b6118a9836020611d57565b6040516020016118ba929190612482565b60408051601f198184030181529082905262461bcd60e51b82526105fa91600401612534565b6118ea8282610b8e565b6113bc576000828152600e602090815260408083206001600160a01b03851684529091529020805460ff191660011790556119223390565b6001600160a01b0316816001600160a01b0316837f2f8788117e7eff1d82e926ec794901d17c78024a50270940304540a733656f0d60405160405180910390a45050565b60008181526001830160205260408120546107be575081546001818101845560008481526020808220909301849055845484825282860190935260409020919091556104ed565b6119b78282611668565b611a0d5760405162461bcd60e51b815260206004820152602160248201527f526f6c65733a206163636f756e7420646f6573206e6f74206861766520726f6c6044820152606560f81b60648201526084016105fa565b6001600160a01b0316600090815260209190915260409020805460ff19169055565b611a398282610b8e565b156113bc576000828152600e602090815260408083206001600160a01b0385168085529252808320805460ff1916905551339285917ff6391f5c32d9c69d2a47ea670b442974b53935d1edc7fd64eb21e047a839171b9190a45050565b60008181526001830160205260408120548015611b7f576000611aba600183612635565b8554909150600090611ace90600190612635565b9050818114611b33576000866000018281548110611aee57611aee61273b565b9060005260206000200154905080876000018481548110611b1157611b1161273b565b6000918252602080832090910192909255918252600188019052604090208390555b8554869080611b4457611b44612725565b6001900381819060005260206000200160009055905585600101600086815260200190815260200160002060009055600193505050506104ed565b60009150506104ed565b6000826000018281548110611ba057611ba061273b565b9060005260206000200154905092915050565b60006001600160a01b0384163b15611cb557604051630a85bd0160e11b81526001600160a01b0385169063150b7a0290611bf79033908990889088906004016124f7565b602060405180830381600087803b158015611c1157600080fd5b505af1925050508015611c41575060408051601f3d908101601f19168201909252611c3e918101906123ee565b60015b611c9b573d808015611c6f576040519150601f19603f3d011682016040523d82523d6000602084013e611c74565b606091505b508051611c935760405162461bcd60e51b81526004016105fa90612547565b805181602001fd5b6001600160e01b031916630a85bd0160e11b149050611112565b506001949350505050565b60006001600160e01b0319821663780e9d6360e01b14806104ed57506104ed82611ef3565b611cf0838383611f43565b600b5460ff16156107305760405162461bcd60e51b815260206004820152602b60248201527f4552433732315061757361626c653a20746f6b656e207472616e73666572207760448201526a1a1a5b19481c185d5cd95960aa1b60648201526084016105fa565b60606000611d66836002612616565b611d719060026125ea565b67ffffffffffffffff811115611d8957611d89612751565b6040519080825280601f01601f191660200182016040528015611db3576020820181803683370190505b509050600360fc1b81600081518110611dce57611dce61273b565b60200101906001600160f81b031916908160001a905350600f60fb1b81600181518110611dfd57611dfd61273b565b60200101906001600160f81b031916908160001a9053506000611e21846002612616565b611e2c9060016125ea565b90505b6001811115611ea4576f181899199a1a9b1b9c1cb0b131b232b360811b85600f1660108110611e6057611e6061273b565b1a60f81b828281518110611e7657611e7661273b565b60200101906001600160f81b031916908160001a90535060049490941c93611e9d81612678565b9050611e2f565b508315610b875760405162461bcd60e51b815260206004820181905260248201527f537472696e67733a20686578206c656e67746820696e73756666696369656e7460448201526064016105fa565b60006001600160e01b031982166380ac58cd60e01b1480611f2457506001600160e01b03198216635b5e139f60e01b145b806104ed57506301ffc9a760e01b6001600160e01b03198316146104ed565b6001600160a01b038316611f9e57611f9981600980546000838152600a60205260408120829055600182018355919091527f6e1540171b6c0c960b71a7020d9f60077f6af931a8bbf590da0223dacf75c7af0155565b611fc1565b816001600160a01b0316836001600160a01b031614611fc157611fc18382611ffb565b6001600160a01b038216611fd85761073081612098565b826001600160a01b0316826001600160a01b031614610730576107308282612147565b6000600161200884610a82565b6120129190612635565b600083815260086020526040902054909150808214612065576001600160a01b03841660009081526007602090815260408083208584528252808320548484528184208190558352600890915290208190555b5060009182526008602090815260408084208490556001600160a01b039094168352600781528383209183525290812055565b6009546000906120aa90600190612635565b6000838152600a6020526040812054600980549394509092849081106120d2576120d261273b565b9060005260206000200154905080600983815481106120f3576120f361273b565b6000918252602080832090910192909255828152600a9091526040808220849055858252812055600980548061212b5761212b612725565b6001900381819060005260206000200160009055905550505050565b600061215283610a82565b6001600160a01b039093166000908152600760209081526040808320868452825280832085905593825260089052919091209190915550565b80356001600160a01b03811681146121a257600080fd5b919050565b6000602082840312156121b957600080fd5b610b878261218b565b600080604083850312156121d557600080fd5b6121de8361218b565b91506121ec6020840161218b565b90509250929050565b60008060006060848603121561220a57600080fd5b6122138461218b565b92506122216020850161218b565b9150604084013590509250925092565b6000806000806080858703121561224757600080fd5b6122508561218b565b935061225e6020860161218b565b925060408501359150606085013567ffffffffffffffff8082111561228257600080fd5b818701915087601f83011261229657600080fd5b8135818111156122a8576122a8612751565b604051601f8201601f19908116603f011681019083821181831017156122d0576122d0612751565b816040528281528a60208487010111156122e957600080fd5b82602086016020830137600060208483010152809550505050505092959194509250565b6000806040838503121561232057600080fd5b6123298361218b565b91506020830135801515811461233e57600080fd5b809150509250929050565b6000806040838503121561235c57600080fd5b6123658361218b565b946020939093013593505050565b60006020828403121561238557600080fd5b5035919050565b6000806040838503121561239f57600080fd5b823591506121ec6020840161218b565b600080604083850312156123c257600080fd5b50508035926020909101359150565b6000602082840312156123e357600080fd5b8135610b8781612767565b60006020828403121561240057600080fd5b8151610b8781612767565b6000815180845261242381602086016020860161264c565b601f01601f19169290920160200192915050565b6000825161244981846020870161264c565b9190910192915050565b6000835161246581846020880161264c565b83519083019061247981836020880161264c565b01949350505050565b7f416363657373436f6e74726f6c3a206163636f756e74200000000000000000008152600083516124ba81601785016020880161264c565b7001034b99036b4b9b9b4b733903937b6329607d1b60179184019182015283516124eb81602884016020880161264c565b01602801949350505050565b6001600160a01b038581168252841660208201526040810183905260806060820181905260009061252a9083018461240b565b9695505050505050565b602081526000610b87602083018461240b565b60208082526032908201527f4552433732313a207472616e7366657220746f206e6f6e20455243373231526560408201527131b2b4bb32b91034b6b83632b6b2b73a32b960711b606082015260800190565b60208082526031908201527f4552433732313a207472616e736665722063616c6c6572206973206e6f74206f6040820152701ddb995c881b9bdc88185c1c1c9bdd9959607a1b606082015260800190565b600082198211156125fd576125fd6126f9565b500190565b6000826126115761261161270f565b500490565b6000816000190483118215151615612630576126306126f9565b500290565b600082821015612647576126476126f9565b500390565b60005b8381101561266757818101518382015260200161264f565b83811115610cf05750506000910152565b600081612687576126876126f9565b506000190190565b600181811c908216806126a357607f821691505b602082108114156126c457634e487b7160e01b600052602260045260246000fd5b50919050565b60006000198214156126de576126de6126f9565b5060010190565b6000826126f4576126f461270f565b500690565b634e487b7160e01b600052601160045260246000fd5b634e487b7160e01b600052601260045260246000fd5b634e487b7160e01b600052603160045260246000fd5b634e487b7160e01b600052603260045260246000fd5b634e487b7160e01b600052604160045260246000fd5b6001600160e01b03198116811461089a57600080fdfea2646970667358221220586c16906958f92dce0aa3f1b63b01452a5bb39b636e3ec227b619d9f82f323364736f6c63430008070033",
    "sourcePath": "d:/New folder/GameToken/contracts/Game.sol",
    "compiler": {
        "name": "solc",
        "version": "0.8.7+commit.e28d00a7"
    },
    "functionHashes": {
        "DEFAULT_ADMIN_ROLE()": "a217fddf",
        "addMinter(address)": "983b2d56",
        "approve(address,uint256)": "095ea7b3",
        "balanceOf(address)": "70a08231",
        "burn(uint256)": "42966c68",
        "canImplementInterfaceForAddress(bytes32,address)": "249cb3fa",
        "getApproved(uint256)": "081812fc",
        "getRoleAdmin(bytes32)": "248a9ca3",
        "getRoleMember(bytes32,uint256)": "9010d07c",
        "getRoleMemberCount(bytes32)": "ca15c873",
        "grantRole(bytes32,address)": "2f2ff15d",
        "hasRole(bytes32,address)": "91d14854",
        "isApprovedForAll(address,address)": "e985e9c5",
        "isMinter(address)": "aa271e1a",
        "mint(address,uint256)": "40c10f19",
        "name()": "06fdde03",
        "owner()": "8da5cb5b",
        "ownerOf(uint256)": "6352211e",
        "paused()": "5c975abb",
        "removeMinter(address)": "3092afd5",
        "renounceMinter()": "98650275",
        "renounceOwnership()": "715018a6",
        "renounceRole(bytes32,address)": "36568abe",
        "revokeRole(bytes32,address)": "d547741f",
        "safeTransferFrom(address,address,uint256)": "42842e0e",
        "safeTransferFrom(address,address,uint256,bytes)": "b88d4fde",
        "setApprovalForAll(address,bool)": "a22cb465",
        "supportsInterface(bytes4)": "01ffc9a7",
        "symbol()": "95d89b41",
        "tokenByIndex(uint256)": "4f6ccce7",
        "tokenOfOwnerByIndex(address,uint256)": "2f745c59",
        "tokenURI(uint256)": "c87b56dd",
        "totalSupply()": "18160ddd",
        "transferFrom(address,address,uint256)": "23b872dd",
        "transferOwnership(address)": "f2fde38b"
    },
    "gasEstimates": {
        "creation": {
            "codeDepositCost": "2032600",
            "executionCost": "infinite",
            "totalCost": "infinite"
        },
        "external": {
            "DEFAULT_ADMIN_ROLE()": "240",
            "addMinter(address)": "infinite",
            "approve(address,uint256)": "infinite",
            "balanceOf(address)": "2657",
            "burn(uint256)": "infinite",
            "canImplementInterfaceForAddress(bytes32,address)": "2841",
            "getApproved(uint256)": "4783",
            "getRoleAdmin(bytes32)": "2534",
            "getRoleMember(bytes32,uint256)": "infinite",
            "getRoleMemberCount(bytes32)": "infinite",
            "grantRole(bytes32,address)": "infinite",
            "hasRole(bytes32,address)": "2721",
            "isApprovedForAll(address,address)": "infinite",
            "isMinter(address)": "2728",
            "mint(address,uint256)": "infinite",
            "name()": "infinite",
            "owner()": "2443",
            "ownerOf(uint256)": "2602",
            "paused()": "2426",
            "removeMinter(address)": "infinite",
            "renounceMinter()": "28096",
            "renounceOwnership()": "28204",
            "renounceRole(bytes32,address)": "infinite",
            "revokeRole(bytes32,address)": "infinite",
            "safeTransferFrom(address,address,uint256)": "infinite",
            "safeTransferFrom(address,address,uint256,bytes)": "infinite",
            "setApprovalForAll(address,bool)": "26695",
            "supportsInterface(bytes4)": "infinite",
            "symbol()": "infinite",
            "tokenByIndex(uint256)": "6826",
            "tokenOfOwnerByIndex(address,uint256)": "4998",
            "tokenURI(uint256)": "infinite",
            "totalSupply()": "2327",
            "transferFrom(address,address,uint256)": "infinite",
            "transferOwnership(address)": "28441"
        },
        "internal": {
            "_beforeTokenTransfer(address,address,uint256)": "infinite"
        }
    }
}